{
  "_format": "hh3-artifact-1",
  "contractName": "FogSession",
  "sourceName": "contracts/FogSession.sol",
  "abi": [
    {
      "inputs": [],
      "stateMutability": "nonpayable",
      "type": "constructor"
    },
    {
      "anonymous": false,
      "inputs": [
        {
          "indexed": true,
          "internalType": "uint256",
          "name": "sessionId",
          "type": "uint256"
        },
        {
          "indexed": true,
          "internalType": "address",
          "name": "player",
          "type": "address"
        }
      ],
      "name": "PlayerJoined",
      "type": "event"
    },
    {
      "anonymous": false,
      "inputs": [
        {
          "indexed": true,
          "internalType": "uint256",
          "name": "sessionId",
          "type": "uint256"
        },
        {
          "indexed": true,
          "internalType": "address",
          "name": "creator",
          "type": "address"
        },
        {
          "indexed": false,
          "internalType": "uint256",
          "name": "maxPlayers",
          "type": "uint256"
        }
      ],
      "name": "SessionCreated",
      "type": "event"
    },
    {
      "anonymous": false,
      "inputs": [
        {
          "indexed": true,
          "internalType": "uint256",
          "name": "sessionId",
          "type": "uint256"
        },
        {
          "indexed": true,
          "internalType": "address",
          "name": "winner",
          "type": "address"
        },
        {
          "indexed": false,
          "internalType": "uint256",
          "name": "prize",
          "type": "uint256"
        }
      ],
      "name": "SessionEnded",
      "type": "event"
    },
    {
      "anonymous": false,
      "inputs": [
        {
          "indexed": true,
          "internalType": "uint256",
          "name": "sessionId",
          "type": "uint256"
        },
        {
          "indexed": false,
          "internalType": "uint256",
          "name": "startTime",
          "type": "uint256"
        }
      ],
      "name": "SessionStarted",
      "type": "event"
    },
    {
      "inputs": [],
      "name": "CREATION_FEE",
      "outputs": [
        {
          "internalType": "uint256",
          "name": "",
          "type": "uint256"
        }
      ],
      "stateMutability": "view",
      "type": "function"
    },
    {
      "inputs": [],
      "name": "ENTRY_FEE",
      "outputs": [
        {
          "internalType": "uint256",
          "name": "",
          "type": "uint256"
        }
      ],
      "stateMutability": "view",
      "type": "function"
    },
    {
      "inputs": [
        {
          "internalType": "uint256",
          "name": "maxPlayers",
          "type": "uint256"
        },
        {
          "internalType": "uint256",
          "name": "durationSeconds",
          "type": "uint256"
        }
      ],
      "name": "createSession",
      "outputs": [],
      "stateMutability": "payable",
      "type": "function"
    },
    {
      "inputs": [
        {
          "internalType": "uint256",
          "name": "sessionId",
          "type": "uint256"
        },
        {
          "internalType": "address",
          "name": "winner",
          "type": "address"
        }
      ],
      "name": "endSession",
      "outputs": [],
      "stateMutability": "nonpayable",
      "type": "function"
    },
    {
      "inputs": [
        {
          "internalType": "uint256",
          "name": "sessionId",
          "type": "uint256"
        }
      ],
      "name": "getPlayerCount",
      "outputs": [
        {
          "internalType": "uint256",
          "name": "",
          "type": "uint256"
        }
      ],
      "stateMutability": "view",
      "type": "function"
    },
    {
      "inputs": [
        {
          "internalType": "uint256",
          "name": "sessionId",
          "type": "uint256"
        }
      ],
      "name": "getPlayers",
      "outputs": [
        {
          "internalType": "address[]",
          "name": "",
          "type": "address[]"
        }
      ],
      "stateMutability": "view",
      "type": "function"
    },
    {
      "inputs": [
        {
          "internalType": "uint256",
          "name": "sessionId",
          "type": "uint256"
        }
      ],
      "name": "getVault",
      "outputs": [
        {
          "internalType": "address",
          "name": "",
          "type": "address"
        }
      ],
      "stateMutability": "view",
      "type": "function"
    },
    {
      "inputs": [
        {
          "internalType": "uint256",
          "name": "",
          "type": "uint256"
        },
        {
          "internalType": "address",
          "name": "",
          "type": "address"
        }
      ],
      "name": "hasJoined",
      "outputs": [
        {
          "internalType": "bool",
          "name": "",
          "type": "bool"
        }
      ],
      "stateMutability": "view",
      "type": "function"
    },
    {
      "inputs": [
        {
          "internalType": "uint256",
          "name": "sessionId",
          "type": "uint256"
        }
      ],
      "name": "joinSession",
      "outputs": [],
      "stateMutability": "payable",
      "type": "function"
    },
    {
      "inputs": [],
      "name": "owner",
      "outputs": [
        {
          "internalType": "address",
          "name": "",
          "type": "address"
        }
      ],
      "stateMutability": "view",
      "type": "function"
    },
    {
      "inputs": [],
      "name": "sessionCount",
      "outputs": [
        {
          "internalType": "uint256",
          "name": "",
          "type": "uint256"
        }
      ],
      "stateMutability": "view",
      "type": "function"
    },
    {
      "inputs": [
        {
          "internalType": "uint256",
          "name": "",
          "type": "uint256"
        }
      ],
      "name": "sessions",
      "outputs": [
        {
          "internalType": "uint256",
          "name": "id",
          "type": "uint256"
        },
        {
          "internalType": "address",
          "name": "creator",
          "type": "address"
        },
        {
          "internalType": "uint256",
          "name": "entryFee",
          "type": "uint256"
        },
        {
          "internalType": "uint256",
          "name": "maxPlayers",
          "type": "uint256"
        },
        {
          "internalType": "uint256",
          "name": "duration",
          "type": "uint256"
        },
        {
          "internalType": "uint256",
          "name": "startTime",
          "type": "uint256"
        },
        {
          "internalType": "enum FogSession.SessionState",
          "name": "state",
          "type": "uint8"
        },
        {
          "internalType": "address",
          "name": "winner",
          "type": "address"
        },
        {
          "internalType": "contract FogVault",
          "name": "vault",
          "type": "address"
        }
      ],
      "stateMutability": "view",
      "type": "function"
    },
    {
      "inputs": [
        {
          "internalType": "uint256",
          "name": "sessionId",
          "type": "uint256"
        }
      ],
      "name": "startSession",
      "outputs": [],
      "stateMutability": "nonpayable",
      "type": "function"
    }
  ],
  "bytecode": "0x6080604052348015600e575f5ffd5b50600180546001600160a01b031916331790556114b88061002e5f395ff3fe6080604052600436106100bf575f3560e01c80637b00b2571161007c5780638da5cb5b116100575780638da5cb5b146102715780639403b634146102a8578063ab1205e9146102df578063f6d361cc1461030d575f5ffd5b80637b00b257146101b25780637c4aed4c146101c557806383c4b7a3146101e4575f5ffd5b806305991eba146100c3578063460e2049146100d857806349a2104d1461010d578063681947191461013657806373cd83361461017f5780637712761214610193575b5f5ffd5b6100d66100d1366004610c0c565b610328565b005b3480156100e3575f5ffd5b506100f76100f2366004610c0c565b610564565b6040516101049190610c23565b60405180910390f35b348015610118575f5ffd5b506101286706f05b59d3b2000081565b604051908152602001610104565b348015610141575f5ffd5b5061016f610150366004610c6e565b600360209081525f928352604080842090915290825290205460ff1681565b6040519015158152602001610104565b34801561018a575f5ffd5b506101285f5481565b34801561019e575f5ffd5b506100d66101ad366004610c0c565b6105d0565b6100d66101c0366004610ca7565b610742565b3480156101d0575f5ffd5b506100d66101df366004610c6e565b610995565b3480156101ef575f5ffd5b5061025c6101fe366004610c0c565b600260208190525f918252604090912080546001820154928201546003830154600484015460058501546006860154600887015460099097015495976001600160a01b0390811697959694959394929360ff90921692918116911689565b60405161010499989796959493929190610cdb565b34801561027c575f5ffd5b50600154610290906001600160a01b031681565b6040516001600160a01b039091168152602001610104565b3480156102b3575f5ffd5b506102906102c2366004610c0c565b5f908152600260205260409020600901546001600160a01b031690565b3480156102ea575f5ffd5b506101286102f9366004610c0c565b5f9081526002602052604090206007015490565b348015610318575f5ffd5b50610128670de0b6b3a764000081565b805f5481106103525760405162461bcd60e51b815260040161034990610d55565b60405180910390fd5b815f805f8381526002602081905260409091206006015460ff169081111561037c5761037c610cc7565b146103995760405162461bcd60e51b815260040161034990610d85565b5f848152600260209081526040808320600383528184203385529092529091205460ff16156103fb5760405162461bcd60e51b815260206004820152600e60248201526d105b1c9958591e481a9bda5b995960921b6044820152606401610349565b60038101546007820154106104445760405162461bcd60e51b815260206004820152600f60248201526e14d95cdcda5bdb881a5cc8199d5b1b608a1b6044820152606401610349565b806002015434146104895760405162461bcd60e51b815260206004820152600f60248201526e57726f6e6720656e7472792066656560881b6044820152606401610349565b5f85815260036020908152604080832033808552908352818420805460ff19166001908117909155600786018054918201815585529290932090910180546001600160a01b031916831790556009830154905163f340fa0160e01b815260048101929092526001600160a01b03169063f340fa019034906024015f604051808303818588803b15801561051a575f5ffd5b505af115801561052c573d5f5f3e3d5ffd5b50506040513393508892507f87969bc7faf902221a147b95ceba76e011c5efb0339a0a8ee7a2bb82d9cfbbd691505f90a35050505050565b5f818152600260209081526040918290206007018054835181840281018401909452808452606093928301828280156105c457602002820191905f5260205f20905b81546001600160a01b031681526001909101906020018083116105a6575b50505050509050919050565b805f5481106105f15760405162461bcd60e51b815260040161034990610d55565b815f805f8381526002602081905260409091206006015460ff169081111561061b5761061b610cc7565b146106385760405162461bcd60e51b815260040161034990610d85565b5f84815260026020526040902060018101546001600160a01b0316331461069a5760405162461bcd60e51b815260206004820152601660248201527513db9b1e4818dc99585d1bdc8818d85b881cdd185c9d60521b6044820152606401610349565b6007810154600211156106ef5760405162461bcd60e51b815260206004820152601760248201527f4e656564206174206c65617374203220706c61796572730000000000000000006044820152606401610349565b60068101805460ff19166001179055426005820181905560405190815285907fce6cbe3431d9ec9ac1a82a77a80bb9120b0250307afb3ed08873ea84c52b70c09060200160405180910390a25050505050565b6706f05b59d3b2000034146107995760405162461bcd60e51b815260206004820152601d60248201527f4d7573742070617920302e3520455448206372656174696f6e206665650000006044820152606401610349565b600282101580156107ab575060c88211155b6108015760405162461bcd60e51b815260206004820152602160248201527f506c6179657273206d757374206265206265747765656e203220616e642032306044820152600360fc1b6064820152608401610349565b603c81101561085e5760405162461bcd60e51b8152602060048201526024808201527f4475726174696f6e206d757374206265206174206c65617374203630207365636044820152636f6e647360e01b6064820152608401610349565b5f30670de0b6b3a764000060405161087590610bff565b6001600160a01b0390921682526020820152604001604051809103905ff0801580156108a3573d5f5f3e3d5ffd5b505f80549192509081806108b683610dc6565b909155505f818152600260208190526040808320848155600180820180546001600160a01b03199081163317909155670de0b6b3a764000094830194909455600382018a90556004820189905560068201805460ff191690556009820180546001600160a01b038a811691909616179055549151949550939116913480156108fc02929091818181858888f19350505050158015610956573d5f5f3e3d5ffd5b50604051858152339083907f658891ce811ff307aab5be445fb05fffbcd9a125b10915b1aba719e376c537719060200160405180910390a35050505050565b6001546001600160a01b031633146109db5760405162461bcd60e51b81526020600482015260096024820152682737ba1037bbb732b960b91b6044820152606401610349565b815f5481106109fc5760405162461bcd60e51b815260040161034990610d55565b826001805f8381526002602081905260409091206006015460ff1690811115610a2757610a27610cc7565b14610a445760405162461bcd60e51b815260040161034990610d85565b5f858152600260209081526040808320600383528184206001600160a01b03891685529092529091205460ff16610abd5760405162461bcd60e51b815260206004820152601760248201527f57696e6e6572206d757374206265206120706c617965720000000000000000006044820152606401610349565b80600401548160050154610ad19190610dde565b421015610b185760405162461bcd60e51b815260206004820152601560248201527453657373696f6e207374696c6c2072756e6e696e6760581b6044820152606401610349565b60068101805460ff191660021790556008810180546001600160a01b038781166001600160a01b0319909216821790925560098301546040516302dfa71160e21b815260048101929092525f921690630b7e9c44906024016020604051808303815f875af1158015610b8c573d5f5f3e3d5ffd5b505050506040513d601f19601f82011682018060405250810190610bb09190610df7565b9050856001600160a01b0316877f61c66ac1955a2fcf7f8b6806ce79ce25730babb2446ab231b4f64925e361fda983604051610bee91815260200190565b60405180910390a350505050505050565b61067480610e0f83390190565b5f60208284031215610c1c575f5ffd5b5035919050565b602080825282518282018190525f918401906040840190835b81811015610c635783516001600160a01b0316835260209384019390920191600101610c3c565b509095945050505050565b5f5f60408385031215610c7f575f5ffd5b8235915060208301356001600160a01b0381168114610c9c575f5ffd5b809150509250929050565b5f5f60408385031215610cb8575f5ffd5b50508035926020909101359150565b634e487b7160e01b5f52602160045260245ffd5b8981526001600160a01b038916602082015260408101889052606081018790526080810186905260a08101859052610120810160038510610d2a57634e487b7160e01b5f52602160045260245ffd5b60c08201949094526001600160a01b0392831660e08201529116610100909101529695505050505050565b60208082526016908201527514d95cdcda5bdb88191bd95cc81b9bdd08195e1a5cdd60521b604082015260600190565b60208082526013908201527257726f6e672073657373696f6e20737461746560681b604082015260600190565b634e487b7160e01b5f52601160045260245ffd5b5f60018201610dd757610dd7610db2565b5060010190565b80820180821115610df157610df1610db2565b92915050565b5f60208284031215610e07575f5ffd5b505191905056fe6080604052348015600e575f5ffd5b50604051610674380380610674833981016040819052602b916052565b5f80546001600160a01b0319166001600160a01b0393909316929092179091556001556087565b5f5f604083850312156062575f5ffd5b82516001600160a01b03811681146077575f5ffd5b6020939093015192949293505050565b6105e0806100945f395ff3fe608060405260043610610092575f3560e01c8063d945d53f11610057578063d945d53f14610153578063dbe3010c14610167578063ecfb49a31461017b578063f340fa0114610190578063fc7e286d146101a5575f5ffd5b8063026b1d5f1461009d578063072ea61c146100c05780630b7e9c44146100d5578063295b4e17146100f45780635e3568b81461011d575f5ffd5b3661009957005b5f5ffd5b3480156100a8575f5ffd5b506002545b6040519081526020015b60405180910390f35b3480156100cb575f5ffd5b506100ad60015481565b3480156100e0575f5ffd5b506100ad6100ef366004610507565b6101d0565b3480156100ff575f5ffd5b5060035461010d9060ff1681565b60405190151581526020016100b7565b348015610128575f5ffd5b505f5461013b906001600160a01b031681565b6040516001600160a01b0390911681526020016100b7565b34801561015e575f5ffd5b506100ad600a81565b348015610172575f5ffd5b506100ad605a81565b348015610186575f5ffd5b506100ad60025481565b6101a361019e366004610507565b6103a0565b005b3480156101b0575f5ffd5b506100ad6101bf366004610507565b60046020525f908152604090205481565b5f80546001600160a01b031633146102275760405162461bcd60e51b815260206004820152601560248201527413db9b1e481cd95cdcda5bdb8818dbdb9d1c9858dd605a1b60448201526064015b60405180910390fd5b60035460ff161561026d5760405162461bcd60e51b815260206004820152601060248201526f105b1c9958591e481c185a59081bdd5d60821b604482015260640161021e565b5f600254116102ab5760405162461bcd60e51b815260206004820152600a602482015269115b5c1d1e481c1bdbdb60b21b604482015260640161021e565b6003805460ff191660011790556002545f906064906102cc90605a90610548565b6102d69190610565565b90505f816002546102e79190610584565b6040519091506001600160a01b0385169083156108fc029084905f818181858888f1935050505015801561031d573d5f5f3e3d5ffd5b505f80546040516001600160a01b039091169183156108fc02918491818181858888f19350505050158015610354573d5f5f3e3d5ffd5b5060408051838152602081018390526001600160a01b038616917fdf9a51129930649214df58f542322c245372c6f2fa6fc3c9b40d927c597cd230910160405180910390a25092915050565b5f546001600160a01b031633146103f15760405162461bcd60e51b815260206004820152601560248201527413db9b1e481cd95cdcda5bdb8818dbdb9d1c9858dd605a1b604482015260640161021e565b60015434146104395760405162461bcd60e51b815260206004820152601460248201527315dc9bdb99c819195c1bdcda5d08185b5bdd5b9d60621b604482015260640161021e565b6001600160a01b0381165f90815260046020526040902054156104925760405162461bcd60e51b8152602060048201526011602482015270105b1c9958591e4819195c1bdcda5d1959607a1b604482015260640161021e565b6001600160a01b0381165f908152600460205260408120349081905560028054919290916104c1908490610597565b90915550506040513481526001600160a01b038216907f2da466a7b24304f47e87fa2e1e5a81b9831ce54fec19055ce277ca2f39ba42c49060200160405180910390a250565b5f60208284031215610517575f5ffd5b81356001600160a01b038116811461052d575f5ffd5b9392505050565b634e487b7160e01b5f52601160045260245ffd5b808202811582820484141761055f5761055f610534565b92915050565b5f8261057f57634e487b7160e01b5f52601260045260245ffd5b500490565b8181038181111561055f5761055f610534565b8082018082111561055f5761055f61053456fea2646970667358221220eae3fe94afff9e445f6dc7790a8ed871fb220a5b825cfd9bd01767308efabd6364736f6c634300081c0033a2646970667358221220031847a57d58e1224b4236bfff4054032e6d47301ca3f96d8f2580f1b8d82cbb64736f6c634300081c0033",
  "linkReferences": {},
  "deployedLinkReferences": {},
  "immutableReferences": {},
  "inputSourceName": "project/contracts/FogSession.sol",
  "buildInfoId": "solc-0_8_28-160d290b18d5c675ab59702b455746e5e3832360"
}